:1000000068000120E1020000DD020000DD020000C6
:10001000DD020000DD020000DD0200000000000043
:10002000000000000000000000000000DD020000F1
:10003000DD02000000000000DD020000DD02000023
:10004000DD020000DD020000DD020000DD02000034
:10005000DD020000DD020000DD020000DD02000024
:10006000DD020000DD020000DD020000DD02000014
:10007000DD020000DD020000DD020000DD02000004
:10008000DD020000DD020000DD020000DD020000F4
:10009000DD020000DD020000DD020000DD020000E4
:1000A000DD020000DD020000DD020000DD020000D4
:1000B000DD020000DD020000DD020000DD020000C4
:1000C000DD020000DD020000DD020000DD020000B4
:1000D000DD020000DD020000DD020000DD020000A4
:1000E000DD020000DD020000000000000000000052
:1000F0000000000075080000DD020000DD020000C5
:10010000DD020000DD020000DD020000DD02000073
:10011000DD020000DD020000DD020000DD02000063
:10012000DD020000DD020000DD020000DD02000053
:10013000DD020000DD020000DD020000DD02000043
:10014000DD020000DD020000DD020000DD02000033
:10015000DD020000DD020000DD020000DD02000023
:10016000DD020000DD020000DD020000DD02000013
:10017000DD020000DD020000DD020000DD02000003
:10018000DD020000DD020000DD020000DD020000F3
:10019000DD020000DD020000DD020000DD020000E3
:1001A000DD020000DD020000DD020000DD020000D3
:1001B000DD020000DD020000DD020000DD020000C3
:1001C000DD020000DD020000DD020000DD020000B3
:1001D000DD020000DD020000DD020000DD020000A3
:1001E000DD020000DD020000DD020000DD02000093
:1001F000B90B0000DD020000DD020000DD0200009E
:10020000DD020000DD020000DD020000DD02000072
:10021000DD020000DD020000DD020000DD02000062
:10022000DD020000DD020000DD020000DD02000052
:10023000DD020000DD020000DD020000DD02000042
:10024000DD020000DD020000DD020000DD02000032
:10025000DD020000DD020000DD020000DD02000022
:10026000DD02000010B5054C237833B9044B13B1FF
:100270000448AFF300800123237010BD000000206C
:1002800000000000A00D00000C4B43B10C480D49CC
:1002900010B5AFF300800C48036823B910BD0A48BD
:1002A000036833B97047094B002BF7D0BDE8104005
:1002B0001847064B002BF5D0184700BF0000000080
:1002C000A00D000004000020A00D000000000000B0
:1002D00008B5014B984708BDAD030000FEE70000DC
:1002E00008B5154B154A9A4209D0134B134A03E03F
:1002F000116819600433043211498B42F8D3114B51
:1003000002E000221A6004330F4A9342F9D30F4BE4
:100310000F4A22F07F029A60D3F8882042F47002DC
:10032000C3F88820BFF34F8FBFF36F8F094B9847F7
:10033000094B9847FEE700BF00000020A00D000019
:1003400000000020000000206800002000ED00E018
:1003500000000000B90C0000110C000008B5084AAC
:10036000536943F4004353614022064BC3F8A42071
:10037000054B9847024605490548064B984708BD76
:1003800000080040001C0040730B0000003C0040CF
:100390003C0000201D05000008B50248024B9847AC
:1003A00008BD00BF10E000E05104000008B51B4B81
:1003B00098471B4B4FF00042C3F884201949C3F8FB
:1003C000A81001F18021C3F8A810C3F8842093F885
:1003D000DF1041F0040183F8DF10C3F8982093F890
:1003E000DF2002F0FE0283F8DF204FF48022C3F802
:1003F0001821C3F808214FF08042C3F828210A4A87
:10040000C3F8282193F8522102F0FE0283F852210A
:10041000064B9847064B984708BD00BFD50700001C
:100420000080004100000240040000C09903000069
:100430005D030000EFF31083036072B6BFF35F8FBC
:100440007047BFF35F8F036883F310887047000025
:1004500008B5024B1860024B984708BD1C000020ED
:10046000CD080000F8B5076817B13C4600260BE040
:100470000E4B9847F8BDA5682B449B1A01338D6835
:10048000AB4209D22646246834B163689342F2D85D
:10049000A5689B1A2B44F2E7BC4203D03046044BBC
:1004A0009847F8BD014B9847F8BD00BF41070000D1
:1004B0006D070000F8B54469066901360661037EE0
:1004C00013F0010F05D1037E13F0020F01D1054691
:1004D00009E0037E43F002030376F8BD6F69E36829
:1004E000204698473C469CB16368F31AA268934241
:1004F0000ED305F114073846064B9847237C012B91
:10050000ECD16660324621463846034B9847E5E712
:10051000F8BD00BF750700006504000038B50D4642
:10052000044680B169B101203B220849084B984735
:1005300029462046074B984700202061064B236040
:1005400038BD0020F0E70020EEE700BF000D0000FE
:10055000250700007D090000B504000010B5044621
:1005600053220949003018BF0120084B9847204604
:10057000074B984720B92046064B9847002010BDEE
:100580006FF0100010BD00BF000D00002507000037
:10059000610B0000390B000010B5044661220949C7
:1005A000003018BF0120084B98472046074B98475A
:1005B00020B12046064B9847002010BD6FF0100078
:1005C00010BD00BF000D000025070000610B0000FA
:1005D0004D0B000070B582B00D46044620B309B340
:1005E00001207A221F49204B9847237E43F00103C4
:1005F000237604F11406294630461C4B9847A8B9C7
:1006000023696B60226929463046194B9847237E3F
:1006100003F0FE032376237E13F0020F12D1002095
:1006200002B070BD0020DCE70020DAE7237E03F093
:10063000FE0323767F220B4900200B4B98476FF077
:100640001100EDE701A80B4B9847237E03F0FD0353
:1006500023762046084B984701A8084B984700206E
:10066000DEE700BF000D0000250700002B0700009B
:100670006504000035040000790B0000430400000D
:1006800070B582B00D46044608B3F1B10120952241
:100690001D491E4B9847237E43F00103237604F146
:1006A0001406294630461A4B984790B129463046E1
:1006B000184B9847237E03F0FE032376237E13F026
:1006C000020F11D1002002B070BD0020DFE7002032
:1006D000DDE7237E03F0FE0323769A220A490B4BC3
:1006E00098476FF00900EEE701A80B4B9847237E6F
:1006F00003F0FD0323762046084B984701A8084BDA
:1007000098470020DFE700BF000D0000250700002C
:100710002B0700008507000035040000790B00005E
:100720004304000000B900BE704703681BB18B4250
:1007300003D01B68FAE700207047012070470000D3
:1007400038B504460D46064B984780F00100392223
:100750000449C0B2044B984723682B60256038BD1C
:100760002B070000180D00002507000003680B6030
:100770000160704703681BB11A6802601846704731
:1007800000207047A1B110B40C460368994204D10F
:100790001B680360012008E0134613B11A689442F5
:1007A000FAD13BB122681A6001205DF8044B704712
:1007B000002070470020F8E7430900F01F000122E5
:1007C00002FA00F04033024A42F82300704700BFAB
:1007D00000E100E008B5084A13889BB21380074B7C
:1007E0009847074B9847074B9847074B984740F661
:1007F000FF70064B984708BD0040004141080000CB
:1008000055080000350800007108000011080000BC
:1008100010F0010F08D0054A054B1A62044B5A68C4
:1008200043F6FD731A42F9D1704700BF0101010080
:10083000001C00400122014B5A7170470008004023
:10084000034BDA6902F47C52DA6101221A747047B0
:1008500000140040044A054B9A61044B1B6913F0D5
:10086000020FFAD0704700BF0626000300100040B8
:100870007047000000B583B00D4B9B78DBB201934D
:10088000019B13F0020F06D00A4B1B681BB1084AEC
:100890005068984709E0019B13F0010F05D0054B04
:1008A0005B6813B1024A5068984703B05DF804FBD7
:1008B0000000024158000020034B6FF07F425A6055
:1008C00005221A60704700BF10E000E008B5014B38
:1008D000984708BDB908000008B5C3689A7A12F0B5
:1008E000010F00D108BD01229A7203689847F9E709
:1008F000034B984200D07047024B1960FBE700BFE2
:10090000003C00402000002070B588B006466C46D0
:10091000174D0FCD0FC495E80F0084E80F0000239A
:10092000072B0AD808AA02EB830252F8202CB24205
:1009300001D00133F4E7DBB200E0002300224AB12A
:100940004FF49E720B4900200B4B98474FF0FF303D
:1009500008B070BD02EB820188000549014491F89E
:100960002010994202D00132D2B2E8E750B2EFE74C
:10097000380D00006C0D00002507000070B506461C
:100980000C460846664B98470546F4608D2265493B
:100990000120654B9847236913F0010F19D1236992
:1009A00013F0030FFBD1236813F0020F0BD0236861
:1009B00023F002032360236913F0030FFBD12369A3
:1009C00013F0020FFBD101232360236913F0030FFF
:1009D000FBD1236913F0010FFBD105EB85039A00CE
:1009E000524B13445B6A2360236913F0030FFBD15E
:1009F000AA002A4491004D4B0B4493F82A20E2733D
:100A00001A8DE280012222735B6A03F00C03082B2B
:100A100056D0002B63D105EB85039A00434B13445A
:100A20009B8DA383236913F0C00FFBD10023E383C5
:100A3000236913F0C00FFBD10123637231462046B6
:100A40003B4B984705EB85039A00384B1344B3F9A9
:100A50002230002B0DDB5A0903F01F03012101FA9C
:100A600003F32032334941F82230BFF34F8FBFF3F5
:100A70006F8F05EB85039A002C4B1344B3F922309A
:100A8000002B09DB5A0903F01F03012101FA03F3CC
:100A90006032284941F8223005EB8505AA00234B36
:100AA0001344B3F92230002B08DB590903F01F036C
:100AB000012202FA03F31F4A42F82130002070BDE0
:100AC0001A4B0B44DB6AE361236913F0C00FFBD1BF
:100AD00000232362236913F0C00FFBD1ACE7042B82
:100AE000AAD105EB85039A00104B134493F82C30E0
:100AF0002377236913F0C00FFBD1002363772369A9
:100B000013F0C00FFBD105EB85039A00074B13448C
:100B100093F82B30E376236913F0200FFBD18BE79A
:100B2000090900006C0D000025070000380D0000C9
:100B3000F108000000E100E0C268136843F002031E
:100B40001360136913F0030FFBD17047C268136879
:100B500023F002031360136913F0030FFBD17047F6
:100B6000C268136913F0030FFBD11068C0F3400093
:100B7000704700207047000010B5C068094B9847C7
:100B8000044640F20F1208490120084B984704EB35
:100B90008404A200064B134493F82200054B9847A7
:100BA00010BD00BF090900006C0D00002507000002
:100BB000380D0000B907000008B5024B1868024B59
:100BC000984708BD20000020D90800004FF480227B
:100BD000014BC3F81C2170470080004110B5074944
:100BE0008860074BCB6001230B74064C2046064BF4
:100BF00098472046054B984710BD00BF24000020B1
:100C0000CD0B00003C000020D50500005D05000074
:100C100000B583B01F4B98474FF4FA701E4B9847AE
:100C200002E01E4B1B7D23BB01A81D4B98471D4BAB
:100C3000D3F88010D3F8A020D3F8904054400C4053
:100C4000544001A8184B9847002CEADB134B1B7D3E
:100C5000002BE9D1114D01232B75144C2046144B68
:100C6000984729462046134B984764200A4B9847DB
:100C7000DAE70A4D00232B750C4C20460C4B9847A5
:100C8000294620460B4B98474FF4FA70024B984781
:100C9000CAE700BFD1020000DD0B000024000020E5
:100CA0003504000000800041430400003C000020A7
:100CB000990500008106000070B50D4E0D4CA41B77
:100CC000A4100025A54209D10B4E0C4C00F058F899
:100CD000A41BA4100025A54205D170BD56F82530EF
:100CE00098470135EEE756F8253098470135F2E789
:100CF0008C0D00008C0D00008C0D0000900D00008C
:100D00002E2E2F68616C2F7372632F68616C5F7475
:100D1000696D65722E6300002E2E2F68616C2F7531
:100D200074696C732F7372632F7574696C735F6C65
:100D30006973742E6300000000380040003C0040DE
:100D400000A0014100C0014100140042001800420F
:100D5000001400430018004301006C000803000069
:100D600000000000DC050000000000002E2E2F68AF
:100D7000706C2F74632F68706C5F74632E63000057
:100D8000F8B500BFF8BC08BC9E4670478902000059
:100D9000F8B500BFF8BC08BC9E467047650200006D
:00000001FF
